{
  "transactions": [
    {
      "hash": "0xd1450c8db826c7518bd47d7f68613572ca000c9ee50ac34294e3fbd9739ab1af",
      "transactionType": "CALL",
      "contractName": null,
      "contractAddress": "0xd1c70b1ad9a94f08c31f81a8132f3b1fac79a887",
      "function": "mintNft(string)",
      "arguments": [
        "\"ipfs://bafybeig37ioir76s7mg5oobetncojcm3c3hxasyd4rvid4jqhy4gkaheg4/?filename=0-PUG.json\""
      ],
      "transaction": {
        "from": "0xf37c54517b32ae015136e2433d29546731ddd05c",
        "to": "0xd1c70b1ad9a94f08c31f81a8132f3b1fac79a887",
        "gas": "0x3d623",
        "value": "0x0",
        "input": "0xda86f4a900000000000000000000000000000000000000000000000000000000000000200000000000000000000000000000000000000000000000000000000000000057697066733a2f2f62616679626569673337696f6972373673376d67356f6f6265746e636f6a636d3363336878617379643472766964346a71687934676b61686567342f3f66696c656e616d653d302d5055472e6a736f6e000000000000000000",
        "nonce": "0x2f",
        "chainId": "0xaa36a7"
      },
      "additionalContracts": [],
      "isFixedGasLimit": false
    }
  ],
  "receipts": [
    {
      "status": "0x1",
      "cumulativeGasUsed": "0x185f75",
      "logs": [
        {
          "address": "0xd1c70b1ad9a94f08c31f81a8132f3b1fac79a887",
          "topics": [
            "0xddf252ad1be2c89b69c2b068fc378daa952ba7f163c4a11628f55a4df523b3ef",
            "0x0000000000000000000000000000000000000000000000000000000000000000",
            "0x000000000000000000000000f37c54517b32ae015136e2433d29546731ddd05c",
            "0x0000000000000000000000000000000000000000000000000000000000000000"
          ],
          "data": "0x",
          "blockHash": "0x9b58b7f8b565af03ee8e1e1757c98ea324a359d97abb01f0e204968d7c89e393",
          "blockNumber": "0x5ba234",
          "transactionHash": "0xd1450c8db826c7518bd47d7f68613572ca000c9ee50ac34294e3fbd9739ab1af",
          "transactionIndex": "0xf",
          "logIndex": "0xe",
          "removed": false
        }
      ],
      "logsBloom": "0x00000000000000000000000000000000000000000000000001000000000000000000000000000000000000000000000000000000000000000000000000000000020000000000000000000008000000000000000000000000000000000000000000000000020040000000000000000800000000800000000000000010000000000000000000000000000000000000000000000000000000000000000000000000000000000000000000000000000000000000000000000000000000400000000000000002000000000000000000000000000000000000000000000000000020000000000000000000000000000000000000000000000000000200000000000000",
      "type": "0x0",
      "transactionHash": "0xd1450c8db826c7518bd47d7f68613572ca000c9ee50ac34294e3fbd9739ab1af",
      "transactionIndex": "0xf",
      "blockHash": "0x9b58b7f8b565af03ee8e1e1757c98ea324a359d97abb01f0e204968d7c89e393",
      "blockNumber": "0x5ba234",
      "gasUsed": "0x2c70e",
      "effectiveGasPrice": "0x9cc8b6cfc",
      "from": "0xf37c54517b32ae015136e2433d29546731ddd05c",
      "to": "0xd1c70b1ad9a94f08c31f81a8132f3b1fac79a887",
      "contractAddress": null
    }
  ],
  "libraries": [],
  "pending": [],
  "returns": {},
  "timestamp": 1717054251,
  "chain": 11155111,
  "commit": "b32c263"
}